:020000040800F2
:1000000000110020D9010008E1010008E301000807
:10001000E5010008E7010008E90100080000000010
:10002000000000000000000000000000EB010008DC
:10003000ED01000800000000EF010008F1010008D8
:10004000F3010008F3010008F3010008F3010008C0
:10005000F3010008F3010008F3010008F3010008B0
:10006000F3010008F3010008F3010008F3010008A0
:10007000F3010008F3010008F3010008F301000890
:10008000F3010008F3010008F3010008F301000880
:10009000F3010008F3010008F3010008F301000870
:1000A000F3010008F3010008F3010008F301000860
:1000B000F3010008F3010008F3010008F301000850
:1000C000F3010008F3010008F3010008F301000840
:1000D000F3010008F3010008F3010008F301000830
:1000E000F3010008F3010008F301000800F002F832
:1000F00000F05EF80AA090E8000C82448344AAF164
:100100000107DA4501D100F053F8AFF2090EBAE861
:100110000F0013F0010F18BFFB1A43F0010318473B
:100120000C2A00002C2A000010F8013B0A4413F0AE
:10013000030408BF10F8014B1D1108BF10F8015B44
:10014000641E05D010F8016B641E01F8016BF9D133
:10015000002D15D010F8014B03F00C030C2BA1EB74
:1001600004040ABF10F8013BA4EB8314A4EB03249E
:1001700005F1010314F8016B5B1E01F8016BF9D561
:10018000914238BF10F8013BD1D3704700230024BF
:1001900000250026103A28BF78C1FBD8520728BF97
:1001A00030C148BF0B6070471FB51FBD10B510BDF3
:1001B00000F0DEF81146FFF7F7FF01F011F900F04B
:1001C000FCF803B4FFF7F2FF03BC00F003F90000F2
:1001D000401EFDD17047000009488047094800478C
:1001E000FEE7FEE7FEE7FEE7FEE7FEE7FEE7FEE7E7
:1001F000FEE7FEE704480549054A064B7047000044
:100200006D0D0008ED000008000B0020001100201B
:10021000000D0020000D002053EA020C00F0698060
:100220002DE9F04B4FF00006002B1FBFB3FA83F50A
:1002300003FA05F424FA05F65E4012BF1643B2FA3B
:1002400082F502FA05F4C5F120051EBF22FA05FC6D
:1002500044EA0C04203556EA044C4FEA144418BF13
:10026000641C4FF000084FF00009904271EB030C42
:1002700039D3002919BFB1FA81F701FA07F6B0FAAC
:1002800080F700FA07F6C7F120071EBF20FA07FC27
:1002900046EA0C062037B6FBF4FCA7EB0507103F37
:1002A00007F01F0BCBF120060CFA0BFB2CFA06F61D
:1002B00044BFB3460026202FA4BF5E464FF0000B7C
:1002C0005BEA060C08BF4FF0010B19EB0B09ABFB07
:1002D000027C48EB0608C01B06FB02CC0BFB03CCE0
:1002E00071EB0C01C1E70B46024641464846BDE8AA
:1002F000F08B13B54FF000004FF00001AFF300801A
:10030000BDE81C407047B2F120030AD5C2F12003BA
:1003100020FA02F001FA03F321FA02F140EA0300A5
:10032000704721FA03F04FF00001704710B5431CED
:1003300002E010F8011B71B18107FAD14FF00132D0
:1003400002C88C1A8C4314EAC211F9D0C01A0A06EA
:1003500003D0C01E10BDC01A10BD0A0401D0801EFB
:1003600010BD0902FCD0401E10BD70477047704799
:10037000754600F02BF8AE4605006946534620F05E
:100380000700854618B020B5FFF734FFBDE82040D0
:100390004FF000064FF000074FF000084FF0000B41
:1003A00021F00701AC46ACE8C009ACE8C009ACE8F4
:1003B000C009ACE8C0098D46704710B50446AFF3DC
:1003C00000802046BDE81040FFF7FBBE00487047A4
:1003D000A00A002001491820ABBEFEE7260002005B
:1003E00070472DE9F0410246002500260020002339
:1003F0000024002791F803C00CF00F0591F803C00A
:100400000CF0100CBCF1000F03D091F802C04CEAC4
:10041000050591F800C0BCF1000F31D01468002030
:100420002BE04FF0010C0CFA00F3B1F800C00CEA1D
:1004300003069E4220D183004FF00F0C0CFA03F705
:10044000BC4305FA03FC4CEA040491F803C0BCF178
:10045000280F06D14FF0010C0CFA00FCC2F814C0B2
:100460000AE091F803C0BCF1480F05D14FF0010C30
:100470000CFA00FCC2F810C0401C0828D1D314604C
:10048000B1F800C0BCF1FF0F34DD546800202EE04D
:1004900000F1080C4FF0010808FA0CF3B1F800C0A5
:1004A0000CEA03069E4221D183004FF00F0C0CFA98
:1004B00003F7BC4305FA03FC4CEA040491F803C0BB
:1004C000BCF1280F05D100F1080C08FA0CF8C2F8AD
:1004D000148091F803C0BCF1480F07D100F1080C5B
:1004E0004FF0010808FA0CF8C2F81080401C0828E8
:1004F000CED35460BDE8F08129B1064AD2690243E7
:10050000044BDA6104E0034AD2698243014BDA61A9
:10051000704700000010024029B1064A9269024368
:10052000044B9A6104E0034A92698243014B9A6149
:10053000704700000010024021B1028842F04002E2
:10054000028004E002884FF6BF731A4002807047B1
:1005500010B50022028802F441520B884C882343D4
:100560008C882343CC8823430C8923434C89234321
:100570008C892343CC8923431A430280838B4FF217
:10058000FF74234083830B8A038210BD10B500F0F3
:1005900001F810BD0CB500200190009033480068B0
:1005A00040F480303149086000BF3048006800F4F2
:1005B000003000900198401C0190009818B90198F3
:1005C000B0F5A06FF1D12948006800F4003010B1F7
:1005D0000120009001E0002000900098012843D104
:1005E0002348006840F01000214908600846006870
:1005F00020F0030008600846006840F00200086030
:100600001A484068194948600846406848600846EA
:10061000406840F4806048600846406820F47C10E0
:1006200048600846406840F4E810486008460068A2
:1006300040F08070086000BF0C48006800F0007057
:100640000028F9D00948406820F0030007494860B5
:100650000846406840F00200486000BF0348406818
:1006600000F00C000828F9D10CBD00000010024079
:1006700000200240612800D14120622800D14220A0
:10068000632800D14320642800D14420652800D18C
:100690004520662800D14620672800D147206828D9
:1006A00000D14820692800D149206A2800D14A2079
:1006B0006B2800D14B206C2800D14C206D2800D134
:1006C0004D206E2800D14E206F2800D14F20702879
:1006D00000D15020712800D15120722800D1522021
:1006E000732800D15320742800D15420752800D1DC
:1006F0005520762800D15620772800D15720782819
:1007000000D15820792800D159207A2800D15A20C8
:1007100060286FD2DFE800F0303A444E58626C77C0
:10072000818B6E6E6E6E6E6E6E6E6E6E6E6E6E6EB9
:100730006E6E6E6E6E6E6E6EEE6E6E6E6E6E6E6E59
:100740006E6E6EEDECEBEA6E959FA9B3BDC7F7E850
:10075000E7E6E56E6EE46E6E6EE3E2E1E0DFDEDDBD
:10076000DCDBDAD9D8D7D6D5D4D3D2D1D0CFCECD41
:10077000CCCBCA6E6E6E6EC9002104E0F84A525CA2
:10078000F84B5A54491C1429F8D38BE2002104E099
:10079000F54A525CF34B5A54491C1429F8D381E2B0
:1007A000002104E0F14A525CEE4B5A54491C1429D2
:1007B000F8D377E2002104E0ED4A525CE94B5A5449
:1007C000491C1429F8D36DE2002104E0E94A525C87
:1007D000E44B5A54491C1429F8D363E2002104E085
:1007E000E54A525CDF4B5A54491C1429F8D359E2AC
:1007F000002105E04DE2E14A525CDA4B5A54491CB3
:100800001429F8D34EE2002104E0DD4A525CD54BB6
:100810005A54491C1429F8D344E2002104E0D94A6F
:10082000525CD04B5A54491C1429F8D33AE20021A7
:1008300004E0D54A525CCB4B5A54491C1429F8D3D6
:1008400030E2002104E0C64A525CC64B5A54491CAF
:100850001429F8D326E2002104E0C34A525CC14BBC
:100860005A54491C1429F8D31CE2002104E0BF4A61
:10087000525CBC4B5A54491C1429F8D312E2002193
:1008800004E0BB4A525CB74B5A54491C1429F8D3B4
:1008900008E2002104E0B74A525CB24B5A54491CAA
:1008A0001429F8D3FEE100212AE0C1E14DE142E143
:1008B00037E12CE121E116E10BE100E1F5E0EAE0AE
:1008C000DFE0D4E0C9E0BEE0B3E0A8E09DE092E064
:1008D00087E07CE071E066E05BE050E045E03AE014
:1008E000C4E19BE12DE022E017E00CE082E1A9E108
:1008F0008AE1B1E1C4E1A04A525C9A4B5A54491CC6
:100900001429F8D3CEE1002104E09C4A525C954BB7
:100910005A54491C1429F8D3C4E1002104E0984A30
:10092000525C904B5A54491C1429F8D3BAE1002167
:1009300004E0944A525C8B4B5A54491C1429F8D356
:10094000B0E1002104E0904A525C864B5A54491CA5
:100950001429F8D3A6E1002104E08C4A525C814BB3
:100960005A54491C1429F8D39CE1002104E0884A18
:10097000525C7C4B5A54491C1429F8D392E1002153
:1009800004E0844A525C774B5A54491C1429F8D32A
:1009900088E1002104E0804A525C724B5A54491CA1
:1009A0001429F8D37EE1002104E07C4A525C6D4BAF
:1009B0005A54491C1429F8D374E1002104E0784A00
:1009C000525C684B5A54491C1429F8D36AE100213F
:1009D00004E0744A525C634B5A54491C1429F8D3FE
:1009E00060E1002104E0704A525C5E4B5A54491C9D
:1009F0001429F8D356E1002104E06C4A525C594BAB
:100A00005A54491C1429F8D34CE1002104E0684AE7
:100A1000525C544B5A54491C1429F8D342E100212A
:100A200004E0644A525C4F4B5A54491C1429F8D3D1
:100A300038E1002104E0604A525C4A4B5A54491C98
:100A40001429F8D32EE1002104E05C4A525C454BA6
:100A50005A54491C1429F8D324E1002104E0584ACF
:100A6000525C404B5A54491C1429F8D31AE1002116
:100A700004E0544A525C3B4B5A54491C1429F8D3A5
:100A800010E1002104E0504A525C364B5A54491C94
:100A90001429F8D306E1002104E04C4A525C314BA2
:100AA0005A54491C1429F8D3FCE0002104E0484AB8
:100AB000525C2C4B5A54491C1429F8D3F2E0002103
:100AC00004E0444A525C274B5A54491C1429F8D379
:100AD000E8E0002104E0404A525C224B5A54491C91
:100AE0001429F8D3DEE0002104E03C4A525C1D4B9F
:100AF0005A54491C1429F8D3D4E0002104E0384AA0
:100B0000525C184B5A54491C1429F8D3CAE00021EE
:100B100004E0344A525C134B5A54491C1429F8D34C
:100B2000C0E0002104E0304A525C0E4B5A54491C8C
:100B30001429F8D3B6E0002104E02C4A525C094B9A
:100B40005A54491C1429F8D3ACE0002104E0284A87
:100B5000525C044B5A54491C1429F8D3A2E00000FB
:100B6000080000208C0300201C0000203000002022
:100B700044000020580000206C000020800000206D
:100B800094000020A8000020BC0000205C01002090
:100B9000700100208401002098010020AC01002099
:100BA000C0010020D4010020E8010020FC01002049
:100BB0001002002024020020380200204C020020F5
:100BC0006002002074020020880200209C020020A5
:100BD000B0020020C4020020D8020020EC02002055
:100BE0000003002014030020280300203C03002001
:100BF00050030020002104E02B4A525C2B4B5A5436
:100C0000491C1429F8D34DE0002104E0284A525C25
:100C1000264B5A54491C1429F8D343E0002104E020
:100C2000244A525C214B5A54491C1429F8D339E008
:100C3000002104E0204A525C1C4B5A54491C1429E0
:100C4000F8D32FE0002104E01C4A525C174B5A54A1
:100C5000491C1429F8D325E0002104E0184A525C0D
:100C6000124B5A54491C1429F8D31BE0002104E00C
:100C7000144A525C0D4B5A54491C1429F8D311E004
:100C8000002103E00022094B5A54491C1429F9D3CE
:100C900008E0002103E00022044B5A54491C1429A7
:100CA000F9D300BF00BF7047D00000208C030020A4
:100CB000E4000020F80000200C01002020010020AA
:100CC000340100204801002010B50021002000223E
:100CD000214B5B6803F00C0121B1042906D00829DF
:100CE00028D107E01D4B1E4C236027E01B4B1C4CFA
:100CF000236023E0184B5B6803F47010164B5B68AD
:100D000003F48032022303EB904022B9154B434396
:100D1000134C23600DE0104B5B6803F4003323B1E8
:100D2000104B43430E4C236003E00C4B43430C4CED
:100D3000236003E0094B0A4C236000BF00BF064B51
:100D40005B68C3F30313084CE15C054B1B68CB40A5
:100D5000034C236010BD00000010024000127A0016
:100D60007803002000093D007C03002010B51348E3
:100D7000006840F0010011490860084640681049C9
:100D800008400E494860084600680E4908400B4973
:100D900008600846006820F4802008600846406823
:100DA00020F4FE0048604FF41F008860FFF7EEFB60
:100DB0004FF000600449086010BD000000100240C0
:100DC0000000FFF8FFFFF6FE08ED00E0634864490D
:100DD0000860002009E06249096808606049096804
:100DE000091D5F4A1160411CC8B20A28F3DBE020EC
:100DF0005A498862E120C862E22008634FF48050BB
:100E000058490860401C4860401C886041F210004E
:100E1000C860401C0861401C4861801C8861401CFF
:100E2000C861401C0862801C4862401C8862401CEB
:100E3000C862801C0863401C4863401C8863801C97
:100E4000C863401C0864401C4864801C8864401CC3
:100E5000C864401C086541F230004865401C886544
:100E60004FF48250C865401C0866401C4866801CD0
:100E70008866401CC866401C08674FF49850486755
:100E8000401C8867401CC867801CC1F88000401C5B
:100E9000C1F88400401CC1F8880000205AE000EB33
:100EA000C00101EB00122F498C318854010101F57A
:100EB000A05100EBC00202EB00132A4A8C321A4404
:100EC000C2F8011041F20141102202FB001200EBB6
:100ED000C00101EB001323498C311944C1F80520EE
:100EE00041F20241102202FB001200EBC00101EBB3
:100EF00000131C498C311944C1F8092041F2044106
:100F0000102202FB001200EBC00101EB0013154997
:100F10008C311944C1F80D2041F20541102202FB29
:100F2000001200EBC00101EB00130E498C31194493
:100F3000C1F8112041F20641102202FB001200EB21
:100F4000C00101EB001307498C311944C1F8152089
:100F5000411CC8B24028A2DB70470000A00300205B
:100F60006C030020D40300202DE9F04704460D4611
:100F70000D4909784FF47A7201FB02F001F0F9FA99
:100F8000064622462B4601F0A1FB80468946404694
:100F9000494601F0C1FA0549086008460068FFF7B4
:100FA00017F9BDE8F08700000000002004000020D1
:100FB00010B50446044800786043044908600846B8
:100FC0000068FFF705F910BD0000002004000020B4
:100FD0002DE9F04104460D4616460022054B2046F9
:100FE000294601F073FB0746324600F005F8BDE8DC
:100FF000F081000080842E412DE9F04F85B08046BD
:101000008946924619200490049801F0C9FA0246D4
:101010000B46CDE900010020394901F025F90446CD
:101020000D460022374B2046294601F01DF90446A3
:101030000D4622462B464046494601F047FB0446F2
:101040000D460022304B2046294601F00DF9064698
:101050000F4600222C4B2046294601F005F9CDE928
:10106000000101F059FA1FFA80FB584601F098FA86
:1010700032463B46CDE9000101F026FC06460F460C
:101080000022214B3046394601F020FB04460D4634
:1010900000221E4B2046294601F0E6F806460F4680
:1010A00000221A4B2046294601F0DEF8CDE9000166
:1010B00001F032FA80B20390039801F071FA3246DF
:1010C0003B46CDE9000101F0FFFB06460F4600223A
:1010D0000E4B3046394601F0F9FA04460D462046DB
:1010E000294601F019FA80B2029002982AF8020B00
:1010F00003982AF8020BAAF800B005B0BDE8F08FFB
:10110000000040428084CE400000F0410000F040EA
:101110002DE9FF5F84B004460D46002213462046A9
:10112000294601F097FA03D285F00047264601E0F0
:1011300026462F464FF0224ADFF8B8B000222E4B49
:101140005046594601F090F882468B4600222B4BC0
:101150005046594601F088F882468B46DDE9120177
:1011600001F032FA52465B46CDE9000101F0AEFAD9
:1011700082468B4652465B463046394601F074F84B
:10118000CDE9000101F096FC804689460022134615
:101190002046294601F05EFA0CD26FEA08036FEA96
:1011A000090013F1010840F100094FF6FF7209EA46
:1011B000020903E04FF6FF7209EA020900200190DC
:1011C00011E00198020140464946CDE90298FFF737
:1011D0009AF881B2069801800698801C06900198C2
:1011E000401CC0B2019001980328EADB08B0BDE8BA
:1011F000F09F0000941AFD41000040420000594059
:101200002DE9FC4704460D469246DDE90A670022B7
:10121000064B2046294601F059FA80465246CDE950
:101220000067FFF775FFBDE8FC87000000408F40B6
:101230002DE9FF4F81B0804608F0004020B16FEAF1
:101240000800441C002501E00025444622462B46A8
:101250001DA000F0C1FD00F017FE1D480021A4FBF9
:10126000002B05FB00B001FB0401104601F0ACF9B6
:1012700081460022174B00F0F7FF06460F46032079
:1012800032463B46009014A000F02AFD00F0FCFD21
:1012900008F0004040B10022124B3046394601F0C0
:1012A0001FFB06460F4607E000220E4B304639462C
:1012B00000F026FF06460F4630463946039AFFF7F0
:1012C0009BFE05B0BDE8F08F46525F494E3A0000E4
:1012D0000008AF2F0000E041465245515F494E499A
:1012E000543A0000D01263412DE9FC470746884676
:1012F00014464FF0050A5246002338464146FEF791
:101300008BFFCDE9000100250AE02A01DDE9006933
:1013100030464946FEF7F7FF24F8020B681CC5B2B9
:10132000032DF2DBBDE8FC872DE9F04104460D46B4
:1013300016464FF47A720020A4FB027305FB0232BA
:1013400004FB002132463846FFF7CEFFBDE8F081AE
:101350002DE9F041FFF7B8FC0748006801F020F9DB
:1013600006460022054B00F07FFF044601F0D4F84A
:1013700003490870BDE8F0817803002060E356411E
:101380000000002010B501211020FFF7C5F8012151
:101390000820FFF7C1F801210420FFF7BDF8102154
:1013A000054800F00FF81021044800F00BF8102158
:1013B000034800F007F810BD00080140000C014090
:1013C0000010014038B505460C464FF6FF70ADF8E9
:1013D00000008DF8034069462846FFF702F838BD43
:1013E0001CB5FFF7C3FCFFF7B3FF00F041FDD24887
:1013F00000230268D1A000F001FC00F045FD00F0E0
:10140000C5F9FFF7E3FCCF49098888B2782100F0DD
:101410001BFACD49B1F8741088B2002100F014FA1B
:10142000C949B1F8781088B2002100F00DFAC64918
:10143000B1F87C1088B2002100F006FAC249B1F878
:10144000841088B247F6F87100F0FEF9BE49B1F891
:10145000881088B2002100F0F7F9BB49B1F85410A8
:1014600088B2002100F0F0F9B749B1F8581088B2FD
:10147000002100F0E9F9B54AB5480021FFF754FF13
:10148000B24A1188B04A928990B200F0DDF9AF4AB1
:101490005188AD4A128A90B200F0D6F9AB4A9188D1
:1014A000A94A928A90B200F0CFF9A84A1188A64AB8
:1014B000928C90B200F0C8F9A44A5188A24A128DC9
:1014C00090B200F0C1F9A14A91889F4A928D90B2E2
:1014D00000F0BAF99D4801880A4600239DA000F05B
:1014E0007BFC00F0D1FC994841880A46002399A072
:1014F00000F072FC00F0C8FC944881880A46002382
:1015000094A000F069FC00F0BFFC904A0020014666
:10151000FFF70AFF8D4A11888B4A128B90B200F0B8
:1015200093F98A4A5188884A928B90B200F08CF9DC
:10153000864A9188844A128C90B200F085F9834AD9
:101540001188814A128E90B200F07EF97F4A51884C
:101550007D4A928E90B200F077F97C4A91887A4A5F
:10156000128F90B200F070F9784A00207B49FFF7A3
:101570002FFD764A1188744A928F90B200F064F978
:10158000724A5188704AB2F8402090B200F05CF97B
:101590006E4A91886C4AB2F8442090B200F054F937
:1015A0006A4801880A4600236DA000F015FC00F08F
:1015B0006BFC664841880A46002369A000F00CFCD9
:1015C00000F062FC614881880A46002364A000F0B4
:1015D00003FC00F059FC5E4900205C4ACDE9001094
:1015E0006149FFF70DFE594A1188574AB2F85C204D
:1015F00090B200F029F9554A5188534AB2F8602058
:1016000090B200F021F9514A91884F4AB2F8642013
:1016100090B200F019F94D4801880A46002353A002
:1016200000F0DAFB00F030FC484841880A4600230D
:101630004EA000F0D1FB00F027FC444881880A4608
:1016400000234AA000F0C8FB00F01EFC3F4A002027
:101650004949FFF7BDFC3D4A11883B4AB2F8482092
:1016600090B200F0F1F8394A5188374AB2F84C206C
:1016700090B200F0E9F8354A9188334AB2F8502028
:1016800090B200F0E1F8314801880A4600233BA0FF
:1016900000F0A2FB00F0F8FB2C4841880A4600232A
:1016A00036A000F099FB00F0EFFB284881880A463D
:1016B000002332A000F090FB00F0E6FB244900205C
:1016C000224ACDE900102F49FFF79AFD1F4A1188E1
:1016D0001D4AB2F8682090B200F0B6F81B4A518853
:1016E000194AB2F86C2090B200F0AEF8174A91880F
:1016F000154AB2F8702090B200F0A6F81149898915
:1017000088B24FF4805100F09FF80F49098888B2E1
:101710004BF2703100F098F80A49898A88B210219A
:1017200000F092F8094B1A4642F210711648FFF782
:101730007FFD00201CBD0000780300205359534357
:101740004C4B3A00A0030020D4030020700300207B
:1017500040420F004475725F55533A000000234029
:101760004475725F46313A0000408F404475725FA5
:101770004631493A00000000000025404475725F80
:1017800046323A0000408FC0C2F5280000B587B04D
:1017900001210820FEF7C0FE01210420FEF7BCFE57
:1017A00001210803FEF7B8FE4020ADF81800042020
:1017B0008DF81B0006A92248FEF713FEA020ADF805
:1017C000180018208DF81B0003208DF81A0006A9B8
:1017D0001B48FEF706FE1020ADF818008DF81B0020
:1017E00003208DF81A0006A91548FEF7FAFD00201F
:1017F000ADF804004FF48270ADF806000020ADF89B
:101800000800ADF80A00ADF80C004FF40070ADF818
:101810000E000020ADF812003020ADF8100001A934
:101820000848FEF795FE0748808840F00400054907
:10183000888001210348FEF77FFE07B000BD00004D
:10184000000801400030014070B505460C463F4895
:10185000006820F010003D49086000BF3C48008946
:1018600000F002000028F9D010203949888100BF1B
:101870003748008900F002000028F9D0280A3449CE
:10188000888100BF3248008900F002000028F9D0AA
:10189000E8B22F49888100BF2D48008900F001007F
:1018A0000028F9D02A48808900BF2948008900F023
:1018B00080000028F9D10120FFF77AFB2348006857
:1018C00040F01000214908601420FFF771FB1F4809
:1018D000006820F010001D49086000BF1C48008906
:1018E00000F002000028F9D020201949888100BFAB
:1018F0001748008900F002000028F9D0200A144996
:10190000888100BF1248008900F002000028F9D049
:10191000E0B20F49888100BF0D48008900F0010046
:101920000028F9D00A48808900BF0948008900F0E2
:1019300080000028F9D10120FFF73AFB0348006836
:1019400040F010000149086070BD00000C08014023
:10195000003001402DE9F04780460E4614464FF016
:101960000009002003E00021304A1154401C1428D3
:10197000F9D34046FEF77EFE2A2000F09BFA0020B5
:1019800000F0D2FAC6EBC601C8B200F0CDFA0020D2
:1019900000F0CAFAC6EBC601891DC8B200F0C4FA4D
:1019A0002B2000F087FA002000F0BEFAE106080EB6
:1019B00000F0BAFA002000F0B7FA072101EBC401E9
:1019C000C8B200F0B1FA2C2000F074FA002728E029
:1019D0004FF00009002512E01448405DB8420DD1D7
:1019E0001248405D50B1FF2000F09EFAFF2000F049
:1019F0009BFAFF2000F098FA4FF001096D1C142D9E
:101A0000EAD3B9F1000F0BD10948007800F08CFA45
:101A10000848007800F088FA0748007800F084FA57
:101A20007F1C382FD4DBBDE8F08700008C0300203A
:101A3000640300206503002066030020024A107042
:101A4000024A1170704700006703002068030020FD
:101A50002DE9F04106460C4615462A2000F02AFAE8
:101A6000002000F061FA002000F05EFA002000F093
:101A70005BFA9F2000F058FA2B2000F01BFA0020A0
:101A800000F052FA002000F04FFA002000F04CFA6B
:101A90009F2000F049FA2C2000F00CFA00270FE0FC
:101AA000304600F041FA09480670204600F03CFA42
:101AB00007480470284600F037FA064805707F1C76
:101AC00046F2C1208742EBDBBDE8F08164030020D1
:101AD000650300206603002010B50C480078401E06
:101AE0000A49087008460078FF2807D1084800789E
:101AF000401E074908701120044908700448027804
:101B0000024801782020FFF725FF10BD6703002061
:101B10006803002010B50648027806480178064898
:101B20000078FFF795FF00210846FFF787FF10BDFB
:101B30006603002065030020640300202DE9F041C6
:101B40008AB005460E460A22002328463146FEF793
:101B500063FB02F0FF08002405A800F8048013E0EE
:101B60000A22002328463146FEF756FB02F0FF0802
:101B70000A22002328463146FEF74EFB05460E4654
:101B800005A800F80480641C0A21691A76F1000097
:101B9000E6D2002C01DD05A90D55002005E005AABF
:101BA000115C221A0DF80210401C611C8842F6DB01
:101BB000002719E00F480078112807DD0E4800784B
:101BC000401C0D49087000200A4908701DF80700E4
:101BD00009490A7807490978FFF7BCFE05480078EB
:101BE000401C044908707F1C601C8742E2DB0AB07D
:101BF000BDE8F081670300206803002070B5064649
:101C000014461D46304600F01DFA20462946FFF7CF
:101C100095FF70BD2DE9FC5F06460F46934634469E
:101C20003D46002213463046394600F013FD04D2EB
:101C300028A000F007FA85F00045DA4600BF002230
:101C4000254B2046294600F00FFB04460D460AF1BD
:101C5000010000F0FF0A2046294600F02BFF002378
:101C6000584059400843EAD100221B4B20462946E0
:101C700000F02CFD04460D4626E02046294600F0E3
:101C800019FF8046894640464946FFF757FFAAF1AB
:101C9000010000F0FF0ADA4502D110A000F0D2F9ED
:101CA0004046494600F090FC22462B46CDE9000113
:101CB00000F00AFE04460D460022074B2046294646
:101CC00000F004FD04460D46BAF1000FD5DCBDE876
:101CD000FC9F00002D000000000024402E000000AA
:101CE0002DE9F041064614461D46069F304600F099
:101CF000A9F93A4620462946FFF78CFFBDE8F08156
:101D00002DE9F04389B005460E464FF03709102201
:101D1000002328463146FEF77FFA02F0FF08002430
:101D200005A800F8048013E010220023284631465D
:101D3000FEF772FA02F0FF0810220023284631460F
:101D4000FEF76AFA05460E4605A800F80480641CF2
:101D50001021691A76F10000E6D2002C01DD05A9F8
:101D60000D55002005E005AA115C221A01AB99541B
:101D7000401C611C8842F6DB002722E014480078F2
:101D8000112807DD13480078401C12490870002014
:101D90000F49087001A8C05D092804DD01A8C05DD5
:101DA000484401A9C85501A9C85D0A490A780849EB
:101DB0000978FFF7CFFD06480078401C04490870F9
:101DC0007F1C601C8742D9DB09B0BDE8F0830000AE
:101DD000670300206803002070B5064614461D46C0
:101DE000304600F02FF920462946FFF789FF70BDE5
:101DF0002DE9F04107460C4615461E461848006876
:101E000020F480601649086000201649FFF7ACF8FE
:101E10001348006840F480601149086000201249AE
:101E2000FFF7A2F83A2000F045F8062000F07CF811
:101E3000112000F03FF800200C49FFF795F8292009
:101E400000F038F8362000F035F8384600F06CF82D
:101E5000324629462046FFF7FBFDBDE8F081000031
:101E60000C0C01400000244000406F4000C0624064
:101E700010B5002000F092F8FF2300221146C02088
:101E8000FFF7B6FF10BD00000848007818B90848F1
:101E9000007800B9704700200449087004480078B1
:101EA000401C0349087000BFF4E7000067030020EE
:101EB0006803002010B5044601211948FEF73CFBD9
:101EC0001848006820F40060164908600846006859
:101ED00020F48050086000BF11480830008800F0EE
:101EE00002000028F8D00E480C30048000BF0C48D7
:101EF0000830008800F001000028F8D008480C30B5
:101F0000008800BF06480830008800F080000028E4
:101F1000F8D10448006840F480500249086010BDC0
:101F2000003800400C0C014010B50446012119484E
:101F3000FEF702FB1848006840F40060164908608C
:101F40000846006820F48050086000BF114808303F
:101F5000008800F002000028F8D00E480C30048001
:101F600000BF0C480830008800F001000028F8D0BD
:101F700008480C30008800BF06480830008800F090
:101F800080000028F8D10448006840F480500249DD
:101F9000086010BD003800400C0C014010B586B040
:101FA000044601218803FEF7A7FAFFF7EBF94FF487
:101FB0008040ADF8140004208DF8170005A91F48D3
:101FC000FEF70FFA4FF42040ADF8140018208DF8FA
:101FD000170003208DF8160005A91848FEF701FA2E
:101FE0000020ADF800004FF48270ADF80200002030
:101FF000ADF80400ADF80600ADF808004FF400702D
:10200000ADF80A000020ADF80E00ADF80C406946AE
:102010000B48FEF79DFA0A48001D008840F00400B6
:102020000749091D088041F6024004490C31086047
:1020300001210348FEF780FA06B010BD000C0140F4
:10204000003800402DE9F041054600262846FEF7FD
:102050006DF9804600243BE026480078112801DD18
:10206000FFF712FF24480078132805DD00202349DC
:10207000FEF77AFFFFF74EFD285D0A2802D1FFF731
:1020800003FF27E0285D202801D146F00106285DE6
:102090002F2806D106F0010010B146F0020600E03C
:1020A0000026285D6E2806D106F0020010B146F029
:1020B000040600E00026285D0F490A780D490978DA
:1020C000FFF748FC0B480078401C0A490870641C64
:1020D0004445C1DB00BF072E09D1002702E0FFF70E
:1020E000FBFC7F1C032FFADBFFF7CEFE0026BDE8CA
:1020F000F0810000670300206803002000408F404B
:1021000010B591EA030F48BF83F0004300F1F0835C
:10211000841A71EB030C05D2121943EB0C03001B5C
:1021200061EB0C01DFF824E14FEA1154A4EB135CDE
:102130001EEA430F18BF9EEA445F73D023EA0E03E2
:10214000DCF1200E21EA045143F4801332D322FA49
:102150000CFE10EB0E0023FA0CFE41EB0E01CCF14D
:10216000200E03FA0EFE10EB0E0051F10001B1F546
:10217000801FCCF1200E32D201EB045112FA0EF284
:10218000BDE8104058BF7047401C38BF5FEA4202AC
:1021900018BF7047002814BF20F0010041F1000172
:1021A0004FEA410313F5001F38BF7047A1F1C0414A
:1021B00000F084BB012A43EB0302ACF1200CDCF1FC
:1021C0001F0E32BF4FF0000E23FA0CF310EB03008A
:1021D00041EB0451B4EB115FD0D0A1EB045101F5F8
:1021E000801149085FEA300001EB04510ED350F131
:1021F000000038BF12FA0EFE08D1BDE81040C9E752
:10220000401C38BF5FEA4202CAD1C3E7BDE81040B4
:102210004FEA410313F5001F38BF7047A1F1C041D9
:1022200000F04CBB9EEA445F08D011EA5E0FBDE8A7
:10223000104004BF01F0004100207047BDE810408D
:1022400070B500F0EDFA00BF64FBBE3E0000E0FF99
:10225000491058BFC1F140415B1058BFC3F1404322
:102260008B42EFF3008070472DE9C04130B4DFF8B6
:10227000A0C23CEA111418BF3CEA131400F0EC8031
:1022800081EA03051CEA111444EAD57418BF1CEA5C
:10229000131500F0C780A4EB05044FF0004545EA94
:1022A000C12145EAC32341EA505143EA525304F1A4
:1022B0007F74994204F500344FEAC0204FEAC222ED
:1022C00008BF904200F09C804FEA13650FF2401661
:1022D000765D4FEA134506FB05F7C7F1807706FBED
:1022E00007F74FEAD737A7FB03687642C8F580386F
:1022F000A7FB06CE38BFA8F1010807FB08E64FF0A0
:10230000000EA6FB028CE6FB03CEDCF1000CCEF146
:10231000004E38BFAEF1010EA6FB0C584FF000077F
:102320004FF00005E6FB0E87A1FB08C6A0FB07CE19
:1023300016EB0E0645F10005E1FB076515F1E04ED1
:102340007EBFA4F580345FEA46066D4116F1800732
:1023500045F100054FEA17274FEA066647EA056789
:10236000A6F1DE46B6F1805F4FEA15251FD9384643
:1023700024F0010C05EBC471BCF1FE6F01EB0C11F4
:1023800002D8F0BCBDE8008124425CBF01F5801E8C
:102390009EEAC47F02D4F0BCBDE80081244238D458
:1023A000F0BCA1F1C041BDE8004100F087BA4FEA9E
:1023B000D22242EA43524FEAD323A7FB02864FEAD6
:1023C000D02040EA415007FB03661EEA0E0F4FEA99
:1023D000D12105FB026658BFA6EB0056B6EB0056AE
:1023E0004FEA520E4EEAC37E18EB0E0E56EB530E1A
:1023F000BDD518EB02085E417F1C55F10005B6E71C
:102400004FF480154FF000074FF000064FF0000822
:10241000ADE7F0BC4FF0000001F1C04101F0004118
:10242000BDE8008111EA0C1F0CEA131500D00CE086
:1024300013EA0C1F00F025804FF00000F0BC81EA89
:10244000030101F00041BDE80081F0BCBDE800419E
:1024500081EA030100F032BAF0BCBDE8004170B57A
:1024600000F0DEF9097EFC3E00F007B881EA0301C6
:102470004FF0000001F00041704781EA030100F0D5
:102480001DBAF0BCBDE800414FF000002149704783
:10249000FFFDFBF9F7F5F4F2F0EEEDEBE9E8E6E429
:1024A000E3E1E0DEDDDBDAD8D7D5D4D3D1D0CFCDB0
:1024B000CCCBCAC8C7C6C5C4C2C1C0BFBEBDBCBBE9
:1024C000BAB9B8B7B6B5B4B3B2B1B0AFAEADACABE4
:1024D000AAA9A8A8A7A6A5A4A3A3A2A1A09F9F9EBE
:1024E0009D9C9C9B9A999998979796959594939370
:1024F000929191908F8F8E8E8D8C8C8B8B8A898907
:102500008888878786858584848383828281818089
:102510000000FF070000F87F4FEA1153A3F5806326
:10252000D3F11E03A8BFD3F1200C08DB4FF000420B
:1025300042EAC12252EA505232FA03F0704709428D
:102540000BD4102BC4BF0020704703F5787CBCF17E
:10255000FF3F05D04FF0FF3070474FF0000070474D
:1025600070B500F05DF900BF4992248000207047EB
:10257000F0E710F0004248BF4042B0FA80F310FA92
:1025800003F10AD0C3F11D0303F580634FEA415004
:1025900002EB035202EBD12170474FF0000070476D
:1025A000B0FA80F310FA03F10AD0C3F11D0303F56A
:1025B00080634FEA41504FEA035202EBD12170474A
:1025C0004FF0000070470000B1FA81F30B3B20D3BD
:1025D000994010D1B0FA80F310FA03F108BF7047A8
:1025E000C3F11D0303F580634FEAD1224FEA415046
:1025F00002EB03517047C3F1200C20FA0CFC984009
:10260000C3F1320303F5806341EA0C0101EB03518E
:10261000704710B5C3F10004C3F1320CC4F1200EB1
:102620000CF5806201FA0EFC21FA04F100FA0EF3B7
:10263000E040BDE8104040EA0C0001EB025138BF19
:102640007047401C41F100015B0008BF20F0010011
:102650007047000051EA030C17D41CF5801F58BFC7
:10266000BCF5801F00F10680994218BF704708BF73
:102670009042704707D711F5801F58BF13F5801F90
:1026800019D499427047894270471CF5801F08D5BC
:10269000BCF5801FF7D58B4218BF704708BF824238
:1026A00070474FF4001C1CEB410F38BF1CEB430F6D
:1026B00001D28B42704770B500F0B2F89224490005
:1026C0004FF000514FF08053FFF7C2BDDFF848C113
:1026D00070B51CEA111E1EBF1CEA13159EEA0C0FF2
:1026E00095EA0C0F00F06F8081EA030423EA4C1393
:1026F0004EEAD47E21EA4C1141F4801143F4801358
:10270000AE44A1FB024CA0FB0365AEF17F7E3619FF
:1027100055EB0C05A1FB034C4CF10003A0FB021C84
:1027200016EB0C06654153F10003094218BF46F051
:10273000010613F4007F0BD14FEA03314FEA053055
:10274000340341EA155140EA16506FF003020AE0E3
:102750004FEAC3214FEAC520F40241EA555140EA4D
:1027600056506FF0020202EB2E4201EB025585EA51
:10277000CE710AD05FEA440C18BF24F0004450F137
:10278000000041F1000120EAD47040F2FE7C624575
:1027900000D270BDA84214BF4FF080444FF04044B7
:1027A000002E08BF0024BEF1806FA8BFA1F1C04178
:1027B000BDE8704080F282804FF0000001F1C0411E
:1027C00001F0004170479EEA0C0F0CEA131518BF88
:1027D00095EA0C0F06D04FF0000081EA030E0EF0D0
:1027E000004170BD00F01CF88900013E00F007B800
:1027F00000F009B84FEA430C5FEA5C5C08D081EA5C
:10280000030100F05BB84FEA410C5FEA5C5CF6D173
:102810004FF00000014970470000FF070000F87FFB
:102820000EF1020E2EF0030E5EF8046B364205D454
:10283000012A43EB030515F5001F12D8012841EBCF
:10284000010C1CF5001F0CD80ED14FEAD17C15F5F8
:10285000001F0CEB4C0C0CF1020C08BF4CEBD37CB2
:1028600004E04FF0080C01E04FEAD37C0CEB4C0580
:1028700026FA05F606F00706B6F1040C06D20EEBB2
:10288000860CBDE870404CF0010C6047DFE80CF0AE
:10289000090B02024FF000414FF00000A1F50021AA
:1028A00070BD19461046012851EB010418BFD4F53C
:1028B000001484BF002001F0004170BD0808A0F59D
:1028C00000114FEA3101704791EA030F10B581F012
:1028D00000413FF51DAC83F0004300F009B8000053
:1028E00010B591EA030F48BF83F000433FF510ACE9
:1028F000841A71EB030C07D212198CF0004C43EBD5
:102900000C03001B61EB0C01DFF8A4E14FEA11544A
:10291000A4EB135C1EEA430F18BF9EEA445F00F06D
:10292000B08023EA6E03524221EA0451C3EB6E03E6
:1029300038BF5B1EDCF1200E25D322FA0CFE10EB13
:102940000E0043FA0CFE41EB0E01CCF1200E03FA0F
:102950000EFE10EB0E0051F10001CCF1200E29D437
:1029600012FA0EF201EB0451BDE8104058BF704757
:10297000401C1CBFB2F1004F704700280CBF491C1F
:1029800020F00100704712EB020E43EB030218BF68
:102990004FF0010E4EEA4202ACF1200CDCF11E0EAB
:1029A00054D943FA0CFE10EB0E0051F1FF31CCF17B
:1029B0001E0ED5D50EF1010E12FA0EFE404141EB6E
:1029C000010101EB445C5FEA5C5C10D910EBDE7046
:1029D00001EB045138BFBEF1004FBDE8104018BFF5
:1029E000704700280CBF491C20F00100704730D20E
:1029F0004FEAD42C11F5001124F400641BD0B1FA75
:102A000081F20B3AA41AA41ED2F12003914030FAAD
:102A100003F31943904001EBCC71002C01EB0451FE
:102A2000BDE81040A8BF704701F1C0414FF0000061
:102A300001F000417047B0FA80F310FA03F100D1C1
:102A400010BDE41A173C4805C90AE4E701EB04513C
:102A500010BD491001EB0451BDE810404FEA3000B1
:102A600002E04FF0000170474A0008BF0042F8D072
:102A7000B2F5001F28BF704701F000414FF0000081
:102A800070479EEA445F07D011EA5E0FBDE8104030
:102A900004BF002100207047BDE8104070B5FFF76B
:102AA000BFFE00BF40DFF63E83F000411046704796
:102AB0000000E0FF4FEAC1230A1543EA50534FEAF2
:102AC000C02C18BF43F000431BD4A2F24E02D2F533
:102AD0007C72C0F22080502AA8BF502223FA02F153
:102AE0002CFA02F060B4D2F1200284BF03FA02F59E
:102AF0002843C2F100029CBF23FA02F5284360BCC0
:102B0000704701F1804212F5801F04DA4FF0000097
:102B10004FF00001704770B5FFF782FE49922480A4
:102B2000002001E06FEAE170014670474C2B00087D
:102B3000000000208C03000028010008BC2C0008C5
:102B40008C030020740D00008C010008520001105D
:102B50001E020304080C0F121316181A1D1E21243E
:102B6000282C2D2E0003090A0F11181F262B0DA249
:102B70002F28900513191F251512013D5005050B2F
:102B80001119373128900F040A0B101216191D1E47
:102B90001F2021272E287007080F1011121A2B1141
:102BA0003A8008090F161718191D3E31502165C0CB
:102BB00004262D00A0B21329811440051A21272CC8
:102BC0002C122499D200012114D23214E0050809F4
:102BD0000F102CA1E8613C31C1D114331118D791E9
:102BE0009E230000C3E0081A242526272800B433BA
:102BF000161A2F400524282B2FDC311551F3217490
:102C000041DC97161D3F212833080B3C4005212449
:102C1000272BDD5540352E562480C114C178321D36
:102C20007651286205762152318B25CC260AE08127
:102C300076359064060B1219202450318C12058BC6
:102C400010061116171D1F8B65F4118871858128D8
:102C50003806090B0C0F114561F0217832101292E1
:102C600020785518C5F4751851C98128161F05E03C
:102C7000042C2D2F2851904517151636214F899475
:102C800031DEB1C8E1779114E00425272D281177B2
:102C9000600526282C2E2850061012181E20C491DC
:102CA00014A16359BC11290A12244E996DA004A2E3
:0C2CB0004A043400050006070809000073
:04000005080001D915
:00000001FF
